{
  "_format": "hh-sol-artifact-1",
  "contractName": "MyEpicNFT",
  "sourceName": "contracts/MyEpicNFT.sol",
  "abi": [
    {
      "inputs": [],
      "stateMutability": "nonpayable",
      "type": "constructor"
    },
    {
      "anonymous": false,
      "inputs": [
        {
          "indexed": true,
          "internalType": "address",
          "name": "owner",
          "type": "address"
        },
        {
          "indexed": true,
          "internalType": "address",
          "name": "approved",
          "type": "address"
        },
        {
          "indexed": true,
          "internalType": "uint256",
          "name": "tokenId",
          "type": "uint256"
        }
      ],
      "name": "Approval",
      "type": "event"
    },
    {
      "anonymous": false,
      "inputs": [
        {
          "indexed": true,
          "internalType": "address",
          "name": "owner",
          "type": "address"
        },
        {
          "indexed": true,
          "internalType": "address",
          "name": "operator",
          "type": "address"
        },
        {
          "indexed": false,
          "internalType": "bool",
          "name": "approved",
          "type": "bool"
        }
      ],
      "name": "ApprovalForAll",
      "type": "event"
    },
    {
      "anonymous": false,
      "inputs": [
        {
          "indexed": false,
          "internalType": "address",
          "name": "sender",
          "type": "address"
        },
        {
          "indexed": false,
          "internalType": "uint256",
          "name": "tokenId",
          "type": "uint256"
        }
      ],
      "name": "NewEpicNFTMinted",
      "type": "event"
    },
    {
      "anonymous": false,
      "inputs": [
        {
          "indexed": true,
          "internalType": "address",
          "name": "from",
          "type": "address"
        },
        {
          "indexed": true,
          "internalType": "address",
          "name": "to",
          "type": "address"
        },
        {
          "indexed": true,
          "internalType": "uint256",
          "name": "tokenId",
          "type": "uint256"
        }
      ],
      "name": "Transfer",
      "type": "event"
    },
    {
      "inputs": [
        {
          "internalType": "address",
          "name": "to",
          "type": "address"
        },
        {
          "internalType": "uint256",
          "name": "tokenId",
          "type": "uint256"
        }
      ],
      "name": "approve",
      "outputs": [],
      "stateMutability": "nonpayable",
      "type": "function"
    },
    {
      "inputs": [
        {
          "internalType": "address",
          "name": "owner",
          "type": "address"
        }
      ],
      "name": "balanceOf",
      "outputs": [
        {
          "internalType": "uint256",
          "name": "",
          "type": "uint256"
        }
      ],
      "stateMutability": "view",
      "type": "function"
    },
    {
      "inputs": [
        {
          "internalType": "uint256",
          "name": "tokenId",
          "type": "uint256"
        }
      ],
      "name": "getApproved",
      "outputs": [
        {
          "internalType": "address",
          "name": "",
          "type": "address"
        }
      ],
      "stateMutability": "view",
      "type": "function"
    },
    {
      "inputs": [
        {
          "internalType": "address",
          "name": "owner",
          "type": "address"
        },
        {
          "internalType": "address",
          "name": "operator",
          "type": "address"
        }
      ],
      "name": "isApprovedForAll",
      "outputs": [
        {
          "internalType": "bool",
          "name": "",
          "type": "bool"
        }
      ],
      "stateMutability": "view",
      "type": "function"
    },
    {
      "inputs": [],
      "name": "makeAnEpicNFT",
      "outputs": [],
      "stateMutability": "nonpayable",
      "type": "function"
    },
    {
      "inputs": [],
      "name": "name",
      "outputs": [
        {
          "internalType": "string",
          "name": "",
          "type": "string"
        }
      ],
      "stateMutability": "view",
      "type": "function"
    },
    {
      "inputs": [],
      "name": "nftsLeft",
      "outputs": [
        {
          "internalType": "uint256",
          "name": "",
          "type": "uint256"
        }
      ],
      "stateMutability": "view",
      "type": "function"
    },
    {
      "inputs": [
        {
          "internalType": "uint256",
          "name": "tokenId",
          "type": "uint256"
        }
      ],
      "name": "ownerOf",
      "outputs": [
        {
          "internalType": "address",
          "name": "",
          "type": "address"
        }
      ],
      "stateMutability": "view",
      "type": "function"
    },
    {
      "inputs": [
        {
          "internalType": "uint256",
          "name": "tokenId",
          "type": "uint256"
        }
      ],
      "name": "pickRandomColor",
      "outputs": [
        {
          "internalType": "string",
          "name": "",
          "type": "string"
        }
      ],
      "stateMutability": "view",
      "type": "function"
    },
    {
      "inputs": [
        {
          "internalType": "uint256",
          "name": "tokenId",
          "type": "uint256"
        }
      ],
      "name": "pickRandomWidth",
      "outputs": [
        {
          "internalType": "uint256",
          "name": "",
          "type": "uint256"
        }
      ],
      "stateMutability": "view",
      "type": "function"
    },
    {
      "inputs": [
        {
          "internalType": "address",
          "name": "from",
          "type": "address"
        },
        {
          "internalType": "address",
          "name": "to",
          "type": "address"
        },
        {
          "internalType": "uint256",
          "name": "tokenId",
          "type": "uint256"
        }
      ],
      "name": "safeTransferFrom",
      "outputs": [],
      "stateMutability": "nonpayable",
      "type": "function"
    },
    {
      "inputs": [
        {
          "internalType": "address",
          "name": "from",
          "type": "address"
        },
        {
          "internalType": "address",
          "name": "to",
          "type": "address"
        },
        {
          "internalType": "uint256",
          "name": "tokenId",
          "type": "uint256"
        },
        {
          "internalType": "bytes",
          "name": "_data",
          "type": "bytes"
        }
      ],
      "name": "safeTransferFrom",
      "outputs": [],
      "stateMutability": "nonpayable",
      "type": "function"
    },
    {
      "inputs": [
        {
          "internalType": "address",
          "name": "operator",
          "type": "address"
        },
        {
          "internalType": "bool",
          "name": "approved",
          "type": "bool"
        }
      ],
      "name": "setApprovalForAll",
      "outputs": [],
      "stateMutability": "nonpayable",
      "type": "function"
    },
    {
      "inputs": [
        {
          "internalType": "bytes4",
          "name": "interfaceId",
          "type": "bytes4"
        }
      ],
      "name": "supportsInterface",
      "outputs": [
        {
          "internalType": "bool",
          "name": "",
          "type": "bool"
        }
      ],
      "stateMutability": "view",
      "type": "function"
    },
    {
      "inputs": [],
      "name": "symbol",
      "outputs": [
        {
          "internalType": "string",
          "name": "",
          "type": "string"
        }
      ],
      "stateMutability": "view",
      "type": "function"
    },
    {
      "inputs": [
        {
          "internalType": "uint256",
          "name": "tokenId",
          "type": "uint256"
        }
      ],
      "name": "tokenURI",
      "outputs": [
        {
          "internalType": "string",
          "name": "",
          "type": "string"
        }
      ],
      "stateMutability": "view",
      "type": "function"
    },
    {
      "inputs": [
        {
          "internalType": "address",
          "name": "from",
          "type": "address"
        },
        {
          "internalType": "address",
          "name": "to",
          "type": "address"
        },
        {
          "internalType": "uint256",
          "name": "tokenId",
          "type": "uint256"
        }
      ],
      "name": "transferFrom",
      "outputs": [],
      "stateMutability": "nonpayable",
      "type": "function"
    }
  ],
  "bytecode": "0x60806040526096600860006101000a81548160ff021916908360ff16021790555060405180610180016040528061014d81526020016200411e61014d91396009908051906020019062000054929190620005ed565b506040518060400160405280600981526020017f272077696474683d270000000000000000000000000000000000000000000000815250600a9080519060200190620000a2929190620005ed565b506040518060400160405280601a81526020017f27206865696768743d2733272f3e3c2f7376673e3c2f7376673e000000000000815250600b9080519060200190620000f0929190620005ed565b50604051806101600160405280600360ff168152602001600660ff168152602001600960ff168152602001600c60ff168152602001600f60ff168152602001601260ff168152602001601560ff168152602001601860ff168152602001601b60ff168152602001601e60ff168152602001602060ff16815250600c90600b6200017b9291906200067e565b506040518061016001604052806040518060400160405280600381526020017f726564000000000000000000000000000000000000000000000000000000000081525081526020016040518060400160405280600481526020017f626c75650000000000000000000000000000000000000000000000000000000081525081526020016040518060400160405280600581526020017f677265656e00000000000000000000000000000000000000000000000000000081525081526020016040518060400160405280600681526020017f79656c6c6f77000000000000000000000000000000000000000000000000000081525081526020016040518060400160405280600681526020017f6f72616e6765000000000000000000000000000000000000000000000000000081525081526020016040518060400160405280600681526020017f707572706c65000000000000000000000000000000000000000000000000000081525081526020016040518060400160405280600481526020017f677261790000000000000000000000000000000000000000000000000000000081525081526020016040518060400160405280600481526020017f6379616e0000000000000000000000000000000000000000000000000000000081525081526020016040518060400160405280600481526020017f7465616c0000000000000000000000000000000000000000000000000000000081525081526020016040518060400160405280600581526020017f62726f776e00000000000000000000000000000000000000000000000000000081525081526020016040518060400160405280600581526020017f7768697465000000000000000000000000000000000000000000000000000000815250815250600d90600b62000421929190620006d5565b503480156200042f57600080fd5b506040518060400160405280600981526020017f48506c6966654e465400000000000000000000000000000000000000000000008152506040518060400160405280600681526020017f48506c69666500000000000000000000000000000000000000000000000000008152508160009080519060200190620004b4929190620005ed565b508060019080519060200190620004cd929190620005ed565b5050506200051b6040518060400160405280601e81526020017f54686973206973206d79204e465420636f6e74726163742e20576f61682100008152506200052160201b62000f811760201c565b620008f6565b620005c1816040516024016200053891906200080a565b6040516020818303038152906040527f41304fac000000000000000000000000000000000000000000000000000000007bffffffffffffffffffffffffffffffffffffffffffffffffffffffff19166020820180517bffffffffffffffffffffffffffffffffffffffffffffffffffffffff8381831617835250505050620005c460201b60201c565b50565b60008151905060006a636f6e736f6c652e6c6f679050602083016000808483855afa5050505050565b828054620005fb9062000880565b90600052602060002090601f0160209004810192826200061f57600085556200066b565b82601f106200063a57805160ff19168380011785556200066b565b828001600101855582156200066b579182015b828111156200066a5782518255916020019190600101906200064d565b5b5090506200067a91906200073c565b5090565b828054828255906000526020600020908101928215620006c2579160200282015b82811115620006c1578251829060ff169055916020019190600101906200069f565b5b509050620006d191906200073c565b5090565b82805482825590600052602060002090810192821562000729579160200282015b828111156200072857825182908051906020019062000717929190620005ed565b5091602001919060010190620006f6565b5b5090506200073891906200075b565b5090565b5b80821115620007575760008160009055506001016200073d565b5090565b5b808211156200077f576000818162000775919062000783565b506001016200075c565b5090565b508054620007919062000880565b6000825580601f10620007a55750620007c6565b601f016020900490600052602060002090810190620007c591906200073c565b5b50565b6000620007d6826200082e565b620007e2818562000839565b9350620007f48185602086016200084a565b620007ff81620008e5565b840191505092915050565b60006020820190508181036000830152620008268184620007c9565b905092915050565b600081519050919050565b600082825260208201905092915050565b60005b838110156200086a5780820151818401526020810190506200084d565b838111156200087a576000848401525b50505050565b600060028204905060018216806200089957607f821691505b60208210811415620008b057620008af620008b6565b5b50919050565b7f4e487b7100000000000000000000000000000000000000000000000000000000600052602260045260246000fd5b6000601f19601f8301169050919050565b61381880620009066000396000f3fe608060405234801561001057600080fd5b506004361061010b5760003560e01c80636352211e116100a2578063b88d4fde11610071578063b88d4fde146102dc578063c87b56dd146102f8578063cd18dac514610328578063de9d132f14610346578063e985e9c5146103505761010b565b80636352211e1461024257806370a082311461027257806395d89b41146102a2578063a22cb465146102c05761010b565b806323b872dd116100de57806323b872dd146101aa57806342842e0e146101c6578063514dc8c6146101e25780635a29b992146102125761010b565b806301ffc9a71461011057806306fdde0314610140578063081812fc1461015e578063095ea7b31461018e575b600080fd5b61012a600480360381019061012591906123ad565b610380565b6040516101379190612a7f565b60405180910390f35b610148610462565b6040516101559190612a9a565b60405180910390f35b610178600480360381019061017391906123ff565b6104f4565b60405161018591906129ef565b60405180910390f35b6101a860048036038101906101a39190612371565b610579565b005b6101c460048036038101906101bf919061226b565b610691565b005b6101e060048036038101906101db919061226b565b6106f1565b005b6101fc60048036038101906101f791906123ff565b610711565b6040516102099190612a9a565b60405180910390f35b61022c600480360381019061022791906123ff565b61082f565b6040516102399190612cfa565b60405180910390f35b61025c600480360381019061025791906123ff565b6108c4565b60405161026991906129ef565b60405180910390f35b61028c60048036038101906102879190612206565b610976565b6040516102999190612cfa565b60405180910390f35b6102aa610a2e565b6040516102b79190612a9a565b60405180910390f35b6102da60048036038101906102d59190612335565b610ac0565b005b6102f660048036038101906102f191906122ba565b610ad6565b005b610312600480360381019061030d91906123ff565b610b38565b60405161031f9190612a9a565b60405180910390f35b610330610c8a565b60405161033d9190612cfa565b60405180910390f35b61034e610cb8565b005b61036a6004803603810190610365919061222f565b610eed565b6040516103779190612a7f565b60405180910390f35b60007f80ac58cd000000000000000000000000000000000000000000000000000000007bffffffffffffffffffffffffffffffffffffffffffffffffffffffff1916827bffffffffffffffffffffffffffffffffffffffffffffffffffffffff1916148061044b57507f5b5e139f000000000000000000000000000000000000000000000000000000007bffffffffffffffffffffffffffffffffffffffffffffffffffffffff1916827bffffffffffffffffffffffffffffffffffffffffffffffffffffffff1916145b8061045b575061045a8261101a565b5b9050919050565b60606000805461047190612f8e565b80601f016020809104026020016040519081016040528092919081815260200182805461049d90612f8e565b80156104ea5780601f106104bf576101008083540402835291602001916104ea565b820191906000526020600020905b8154815290600101906020018083116104cd57829003601f168201915b5050505050905090565b60006104ff82611084565b61053e576040517f08c379a000000000000000000000000000000000000000000000000000000000815260040161053590612c7a565b60405180910390fd5b6004600083815260200190815260200160002060009054906101000a900473ffffffffffffffffffffffffffffffffffffffff169050919050565b6000610584826108c4565b90508073ffffffffffffffffffffffffffffffffffffffff168373ffffffffffffffffffffffffffffffffffffffff1614156105f5576040517f08c379a00000000000000000000000000000000000000000000000000000000081526004016105ec90612cba565b60405180910390fd5b8073ffffffffffffffffffffffffffffffffffffffff166106146110f0565b73ffffffffffffffffffffffffffffffffffffffff16148061064357506106428161063d6110f0565b610eed565b5b610682576040517f08c379a000000000000000000000000000000000000000000000000000000000815260040161067990612bba565b60405180910390fd5b61068c83836110f8565b505050565b6106a261069c6110f0565b826111b1565b6106e1576040517f08c379a00000000000000000000000000000000000000000000000000000000081526004016106d890612cda565b60405180910390fd5b6106ec83838361128f565b505050565b61070c83838360405180602001604052806000815250610ad6565b505050565b60606000610745610721846114f6565b60405160200161073191906129cd565b6040516020818303038152906040526116a3565b9050600d8054905081610758919061303a565b9050600d8181548110610794577f4e487b7100000000000000000000000000000000000000000000000000000000600052603260045260246000fd5b9060005260206000200180546107a990612f8e565b80601f01602080910402602001604051908101604052809291908181526020018280546107d590612f8e565b80156108225780601f106107f757610100808354040283529160200191610822565b820191906000526020600020905b81548152906001019060200180831161080557829003601f168201915b5050505050915050919050565b60008061086261083e846114f6565b60405160200161084e91906129ab565b6040516020818303038152906040526116a3565b9050600c8054905081610875919061303a565b9050600c81815481106108b1577f4e487b7100000000000000000000000000000000000000000000000000000000600052603260045260246000fd5b9060005260206000200154915050919050565b6000806002600084815260200190815260200160002060009054906101000a900473ffffffffffffffffffffffffffffffffffffffff169050600073ffffffffffffffffffffffffffffffffffffffff168173ffffffffffffffffffffffffffffffffffffffff16141561096d576040517f08c379a000000000000000000000000000000000000000000000000000000000815260040161096490612bfa565b60405180910390fd5b80915050919050565b60008073ffffffffffffffffffffffffffffffffffffffff168273ffffffffffffffffffffffffffffffffffffffff1614156109e7576040517f08c379a00000000000000000000000000000000000000000000000000000000081526004016109de90612bda565b60405180910390fd5b600360008373ffffffffffffffffffffffffffffffffffffffff1673ffffffffffffffffffffffffffffffffffffffff168152602001908152602001600020549050919050565b606060018054610a3d90612f8e565b80601f0160208091040260200160405190810160405280929190818152602001828054610a6990612f8e565b8015610ab65780601f10610a8b57610100808354040283529160200191610ab6565b820191906000526020600020905b815481529060010190602001808311610a9957829003601f168201915b5050505050905090565b610ad2610acb6110f0565b83836116d6565b5050565b610ae7610ae16110f0565b836111b1565b610b26576040517f08c379a0000000000000000000000000000000000000000000000000000000008152600401610b1d90612cda565b60405180910390fd5b610b3284848484611843565b50505050565b6060610b4382611084565b610b82576040517f08c379a0000000000000000000000000000000000000000000000000000000008152600401610b7990612c5a565b60405180910390fd5b6000600660008481526020019081526020016000208054610ba290612f8e565b80601f0160208091040260200160405190810160405280929190818152602001828054610bce90612f8e565b8015610c1b5780601f10610bf057610100808354040283529160200191610c1b565b820191906000526020600020905b815481529060010190602001808311610bfe57829003601f168201915b505050505090506000610c2c61189f565b9050600081511415610c42578192505050610c85565b600082511115610c77578082604051602001610c5f9291906128b3565b60405160208183030381529060405292505050610c85565b610c80846118b6565b925050505b919050565b6000610c96600761195d565b600860009054906101000a900460ff1660ff16610cb39190612ea4565b905090565b600860009054906101000a900460ff1660ff16610cd5600761195d565b10610cdf57600080fd5b6000610ceb600761195d565b90506000610cf88261082f565b90506000610d1d6020606484610d0e9190612e4a565b610d189190612e19565b6114f6565b604051602001610d2d91906128d7565b60405160208183030381529060405290506000610d4984610711565b90506000600982600a610d5b876114f6565b600b604051602001610d719594939291906128f9565b6040516020818303038152906040529050610d8b81610f81565b6000610dbf84610d9a8461196b565b604051602001610dab929190612944565b60405160208183030381529060405261196b565b9050600081604051602001610dd49190612989565b6040516020818303038152906040529050610e236040518060400160405280601581526020017f0a2d2d2d2d2d2d2d2d2d2d2d2d2d2d2d2d2d2d2d2d0000000000000000000000815250610f81565b610e2c81610f81565b610e6a6040518060400160405280601581526020017f2d2d2d2d2d2d2d2d2d2d2d2d2d2d2d2d2d2d2d2d0a0000000000000000000000815250610f81565b610e743388611b29565b610e7e8782611b47565b610e886007611bbb565b610eab60405180606001604052806025815260200161377e602591398833611bd1565b7febb98688741ffa4c7589bf325de30cf7becb63de567842e1ccdb6cb949fdc82c3388604051610edc929190612a56565b60405180910390a150505050505050565b6000600560008473ffffffffffffffffffffffffffffffffffffffff1673ffffffffffffffffffffffffffffffffffffffff16815260200190815260200160002060008373ffffffffffffffffffffffffffffffffffffffff1673ffffffffffffffffffffffffffffffffffffffff16815260200190815260200160002060009054906101000a900460ff16905092915050565b61101781604051602401610f959190612a9a565b6040516020818303038152906040527f41304fac000000000000000000000000000000000000000000000000000000007bffffffffffffffffffffffffffffffffffffffffffffffffffffffff19166020820180517bffffffffffffffffffffffffffffffffffffffffffffffffffffffff8381831617835250505050611c70565b50565b60007f01ffc9a7000000000000000000000000000000000000000000000000000000007bffffffffffffffffffffffffffffffffffffffffffffffffffffffff1916827bffffffffffffffffffffffffffffffffffffffffffffffffffffffff1916149050919050565b60008073ffffffffffffffffffffffffffffffffffffffff166002600084815260200190815260200160002060009054906101000a900473ffffffffffffffffffffffffffffffffffffffff1673ffffffffffffffffffffffffffffffffffffffff1614159050919050565b600033905090565b816004600083815260200190815260200160002060006101000a81548173ffffffffffffffffffffffffffffffffffffffff021916908373ffffffffffffffffffffffffffffffffffffffff160217905550808273ffffffffffffffffffffffffffffffffffffffff1661116b836108c4565b73ffffffffffffffffffffffffffffffffffffffff167f8c5be1e5ebec7d5bd14f71427d1e84f3dd0314c0f7b2291e5b200ac8c7c3b92560405160405180910390a45050565b60006111bc82611084565b6111fb576040517f08c379a00000000000000000000000000000000000000000000000000000000081526004016111f290612b9a565b60405180910390fd5b6000611206836108c4565b90508073ffffffffffffffffffffffffffffffffffffffff168473ffffffffffffffffffffffffffffffffffffffff16148061127557508373ffffffffffffffffffffffffffffffffffffffff1661125d846104f4565b73ffffffffffffffffffffffffffffffffffffffff16145b8061128657506112858185610eed565b5b91505092915050565b8273ffffffffffffffffffffffffffffffffffffffff166112af826108c4565b73ffffffffffffffffffffffffffffffffffffffff1614611305576040517f08c379a00000000000000000000000000000000000000000000000000000000081526004016112fc90612b1a565b60405180910390fd5b600073ffffffffffffffffffffffffffffffffffffffff168273ffffffffffffffffffffffffffffffffffffffff161415611375576040517f08c379a000000000000000000000000000000000000000000000000000000000815260040161136c90612b5a565b60405180910390fd5b611380838383611c99565b61138b6000826110f8565b6001600360008573ffffffffffffffffffffffffffffffffffffffff1673ffffffffffffffffffffffffffffffffffffffff16815260200190815260200160002060008282546113db9190612ea4565b925050819055506001600360008473ffffffffffffffffffffffffffffffffffffffff1673ffffffffffffffffffffffffffffffffffffffff16815260200190815260200160002060008282546114329190612dc3565b92505081905550816002600083815260200190815260200160002060006101000a81548173ffffffffffffffffffffffffffffffffffffffff021916908373ffffffffffffffffffffffffffffffffffffffff160217905550808273ffffffffffffffffffffffffffffffffffffffff168473ffffffffffffffffffffffffffffffffffffffff167fddf252ad1be2c89b69c2b068fc378daa952ba7f163c4a11628f55a4df523b3ef60405160405180910390a46114f1838383611c9e565b505050565b6060600082141561153e576040518060400160405280600181526020017f3000000000000000000000000000000000000000000000000000000000000000815250905061169e565b600082905060005b6000821461157057808061155990612ff1565b915050600a826115699190612e19565b9150611546565b60008167ffffffffffffffff8111156115b2577f4e487b7100000000000000000000000000000000000000000000000000000000600052604160045260246000fd5b6040519080825280601f01601f1916602001820160405280156115e45781602001600182028036833780820191505090505b5090505b60008514611697576001826115fd9190612ea4565b9150600a8561160c919061303a565b60306116189190612dc3565b60f81b818381518110611654577f4e487b7100000000000000000000000000000000000000000000000000000000600052603260045260246000fd5b60200101907effffffffffffffffffffffffffffffffffffffffffffffffffffffffffffff1916908160001a905350600a856116909190612e19565b94506115e8565b8093505050505b919050565b6000816040516020016116b6919061289c565b6040516020818303038152906040528051906020012060001c9050919050565b8173ffffffffffffffffffffffffffffffffffffffff168373ffffffffffffffffffffffffffffffffffffffff161415611745576040517f08c379a000000000000000000000000000000000000000000000000000000000815260040161173c90612b7a565b60405180910390fd5b80600560008573ffffffffffffffffffffffffffffffffffffffff1673ffffffffffffffffffffffffffffffffffffffff16815260200190815260200160002060008473ffffffffffffffffffffffffffffffffffffffff1673ffffffffffffffffffffffffffffffffffffffff16815260200190815260200160002060006101000a81548160ff0219169083151502179055508173ffffffffffffffffffffffffffffffffffffffff168373ffffffffffffffffffffffffffffffffffffffff167f17307eab39ab6107e8899845ad3d59bd9653f200f220920489ca2b5937696c31836040516118369190612a7f565b60405180910390a3505050565b61184e84848461128f565b61185a84848484611ca3565b611899576040517f08c379a000000000000000000000000000000000000000000000000000000000815260040161189090612afa565b60405180910390fd5b50505050565b606060405180602001604052806000815250905090565b60606118c182611084565b611900576040517f08c379a00000000000000000000000000000000000000000000000000000000081526004016118f790612c9a565b60405180910390fd5b600061190a61189f565b9050600081511161192a5760405180602001604052806000815250611955565b80611934846114f6565b6040516020016119459291906128b3565b6040516020818303038152906040525b915050919050565b600081600001549050919050565b606060008251905060008114156119945760405180602001604052806000815250915050611b24565b600060036002836119a59190612dc3565b6119af9190612e19565b60046119bb9190612e4a565b905060006020826119cc9190612dc3565b67ffffffffffffffff811115611a0b577f4e487b7100000000000000000000000000000000000000000000000000000000600052604160045260246000fd5b6040519080825280601f01601f191660200182016040528015611a3d5781602001600182028036833780820191505090505b50905060006040518060600160405280604081526020016137a3604091399050600181016020830160005b86811015611ae15760038101905062ffffff818a015116603f8160121c168401518060081b905060ff603f83600c1c1686015116810190508060081b905060ff603f8360061c1686015116810190508060081b905060ff603f831686015116810190508060e01b90508084526004840193505050611a68565b506003860660018114611afb5760028114611b0b57611b16565b613d3d60f01b6002830352611b16565b603d60f81b60018303525b508484525050819450505050505b919050565b611b43828260405180602001604052806000815250611e3a565b5050565b611b5082611084565b611b8f576040517f08c379a0000000000000000000000000000000000000000000000000000000008152600401611b8690612c1a565b60405180910390fd5b80600660008481526020019081526020016000209080519060200190611bb6929190612092565b505050565b6001816000016000828254019250508190555050565b611c6b838383604051602401611be993929190612abc565b6040516020818303038152906040527fe3849f79000000000000000000000000000000000000000000000000000000007bffffffffffffffffffffffffffffffffffffffffffffffffffffffff19166020820180517bffffffffffffffffffffffffffffffffffffffffffffffffffffffff8381831617835250505050611c70565b505050565b60008151905060006a636f6e736f6c652e6c6f679050602083016000808483855afa5050505050565b505050565b505050565b6000611cc48473ffffffffffffffffffffffffffffffffffffffff16611e95565b15611e2d578373ffffffffffffffffffffffffffffffffffffffff1663150b7a02611ced6110f0565b8786866040518563ffffffff1660e01b8152600401611d0f9493929190612a0a565b602060405180830381600087803b158015611d2957600080fd5b505af1925050508015611d5a57506040513d601f19601f82011682018060405250810190611d5791906123d6565b60015b611ddd573d8060008114611d8a576040519150601f19603f3d011682016040523d82523d6000602084013e611d8f565b606091505b50600081511415611dd5576040517f08c379a0000000000000000000000000000000000000000000000000000000008152600401611dcc90612afa565b60405180910390fd5b805181602001fd5b63150b7a0260e01b7bffffffffffffffffffffffffffffffffffffffffffffffffffffffff1916817bffffffffffffffffffffffffffffffffffffffffffffffffffffffff191614915050611e32565b600190505b949350505050565b611e448383611eb8565b611e516000848484611ca3565b611e90576040517f08c379a0000000000000000000000000000000000000000000000000000000008152600401611e8790612afa565b60405180910390fd5b505050565b6000808273ffffffffffffffffffffffffffffffffffffffff163b119050919050565b600073ffffffffffffffffffffffffffffffffffffffff168273ffffffffffffffffffffffffffffffffffffffff161415611f28576040517f08c379a0000000000000000000000000000000000000000000000000000000008152600401611f1f90612c3a565b60405180910390fd5b611f3181611084565b15611f71576040517f08c379a0000000000000000000000000000000000000000000000000000000008152600401611f6890612b3a565b60405180910390fd5b611f7d60008383611c99565b6001600360008473ffffffffffffffffffffffffffffffffffffffff1673ffffffffffffffffffffffffffffffffffffffff1681526020019081526020016000206000828254611fcd9190612dc3565b92505081905550816002600083815260200190815260200160002060006101000a81548173ffffffffffffffffffffffffffffffffffffffff021916908373ffffffffffffffffffffffffffffffffffffffff160217905550808273ffffffffffffffffffffffffffffffffffffffff16600073ffffffffffffffffffffffffffffffffffffffff167fddf252ad1be2c89b69c2b068fc378daa952ba7f163c4a11628f55a4df523b3ef60405160405180910390a461208e60008383611c9e565b5050565b82805461209e90612f8e565b90600052602060002090601f0160209004810192826120c05760008555612107565b82601f106120d957805160ff1916838001178555612107565b82800160010185558215612107579182015b828111156121065782518255916020019190600101906120eb565b5b5090506121149190612118565b5090565b5b80821115612131576000816000905550600101612119565b5090565b600061214861214384612d3a565b612d15565b90508281526020810184848401111561216057600080fd5b61216b848285612f4c565b509392505050565b60008135905061218281613721565b92915050565b60008135905061219781613738565b92915050565b6000813590506121ac8161374f565b92915050565b6000815190506121c18161374f565b92915050565b600082601f8301126121d857600080fd5b81356121e8848260208601612135565b91505092915050565b60008135905061220081613766565b92915050565b60006020828403121561221857600080fd5b600061222684828501612173565b91505092915050565b6000806040838503121561224257600080fd5b600061225085828601612173565b925050602061226185828601612173565b9150509250929050565b60008060006060848603121561228057600080fd5b600061228e86828701612173565b935050602061229f86828701612173565b92505060406122b0868287016121f1565b9150509250925092565b600080600080608085870312156122d057600080fd5b60006122de87828801612173565b94505060206122ef87828801612173565b9350506040612300878288016121f1565b925050606085013567ffffffffffffffff81111561231d57600080fd5b612329878288016121c7565b91505092959194509250565b6000806040838503121561234857600080fd5b600061235685828601612173565b925050602061236785828601612188565b9150509250929050565b6000806040838503121561238457600080fd5b600061239285828601612173565b92505060206123a3858286016121f1565b9150509250929050565b6000602082840312156123bf57600080fd5b60006123cd8482850161219d565b91505092915050565b6000602082840312156123e857600080fd5b60006123f6848285016121b2565b91505092915050565b60006020828403121561241157600080fd5b600061241f848285016121f1565b91505092915050565b61243181612ed8565b82525050565b61244081612eea565b82525050565b600061245182612d80565b61245b8185612d96565b935061246b818560208601612f5b565b61247481613127565b840191505092915050565b600061248a82612d8b565b6124948185612da7565b93506124a4818560208601612f5b565b6124ad81613127565b840191505092915050565b60006124c382612d8b565b6124cd8185612db8565b93506124dd818560208601612f5b565b80840191505092915050565b600081546124f681612f8e565b6125008186612db8565b9450600182166000811461251b576001811461252c5761255f565b60ff1983168652818601935061255f565b61253585612d6b565b60005b8381101561255757815481890152600182019150602081019050612538565b838801955050505b50505092915050565b6000612575605283612db8565b915061258082613138565b605282019050919050565b6000612598603283612da7565b91506125a3826131ad565b604082019050919050565b60006125bb602583612da7565b91506125c6826131fc565b604082019050919050565b60006125de601c83612da7565b91506125e98261324b565b602082019050919050565b6000612601602483612da7565b915061260c82613274565b604082019050919050565b6000612624601983612da7565b915061262f826132c3565b602082019050919050565b6000612647602c83612da7565b9150612652826132ec565b604082019050919050565b600061266a603883612da7565b91506126758261333b565b604082019050919050565b600061268d602a83612da7565b91506126988261338a565b604082019050919050565b60006126b0602983612da7565b91506126bb826133d9565b604082019050919050565b60006126d3602e83612da7565b91506126de82613428565b604082019050919050565b60006126f6600283612db8565b915061270182613477565b600282019050919050565b6000612719602083612da7565b9150612724826134a0565b602082019050919050565b600061273c603183612da7565b9150612747826134c9565b604082019050919050565b600061275f602c83612da7565b915061276a82613518565b604082019050919050565b6000612782602f83612da7565b915061278d82613567565b604082019050919050565b60006127a5600a83612db8565b91506127b0826135b6565b600a82019050919050565b60006127c8602183612da7565b91506127d3826135df565b604082019050919050565b60006127eb601d83612db8565b91506127f68261362e565b601d82019050919050565b600061280e603183612da7565b915061281982613657565b604082019050919050565b6000612831600383612db8565b915061283c826136a6565b600382019050919050565b6000612854600583612db8565b915061285f826136cf565b600582019050919050565b6000612877600583612db8565b9150612882826136f8565b600582019050919050565b61289681612f42565b82525050565b60006128a882846124b8565b915081905092915050565b60006128bf82856124b8565b91506128cb82846124b8565b91508190509392505050565b60006128e382846124b8565b91506128ee82612824565b915081905092915050565b600061290582886124e9565b915061291182876124b8565b915061291d82866124e9565b915061292982856124b8565b915061293582846124e9565b91508190509695505050505050565b600061294f82612798565b915061295b82856124b8565b915061296682612568565b915061297282846124b8565b915061297d826126e9565b91508190509392505050565b6000612994826127de565b91506129a082846124b8565b915081905092915050565b60006129b682612847565b91506129c282846124b8565b915081905092915050565b60006129d88261286a565b91506129e482846124b8565b915081905092915050565b6000602082019050612a046000830184612428565b92915050565b6000608082019050612a1f6000830187612428565b612a2c6020830186612428565b612a39604083018561288d565b8181036060830152612a4b8184612446565b905095945050505050565b6000604082019050612a6b6000830185612428565b612a78602083018461288d565b9392505050565b6000602082019050612a946000830184612437565b92915050565b60006020820190508181036000830152612ab4818461247f565b905092915050565b60006060820190508181036000830152612ad6818661247f565b9050612ae5602083018561288d565b612af26040830184612428565b949350505050565b60006020820190508181036000830152612b138161258b565b9050919050565b60006020820190508181036000830152612b33816125ae565b9050919050565b60006020820190508181036000830152612b53816125d1565b9050919050565b60006020820190508181036000830152612b73816125f4565b9050919050565b60006020820190508181036000830152612b9381612617565b9050919050565b60006020820190508181036000830152612bb38161263a565b9050919050565b60006020820190508181036000830152612bd38161265d565b9050919050565b60006020820190508181036000830152612bf381612680565b9050919050565b60006020820190508181036000830152612c13816126a3565b9050919050565b60006020820190508181036000830152612c33816126c6565b9050919050565b60006020820190508181036000830152612c538161270c565b9050919050565b60006020820190508181036000830152612c738161272f565b9050919050565b60006020820190508181036000830152612c9381612752565b9050919050565b60006020820190508181036000830152612cb381612775565b9050919050565b60006020820190508181036000830152612cd3816127bb565b9050919050565b60006020820190508181036000830152612cf381612801565b9050919050565b6000602082019050612d0f600083018461288d565b92915050565b6000612d1f612d30565b9050612d2b8282612fc0565b919050565b6000604051905090565b600067ffffffffffffffff821115612d5557612d546130f8565b5b612d5e82613127565b9050602081019050919050565b60008190508160005260206000209050919050565b600081519050919050565b600081519050919050565b600082825260208201905092915050565b600082825260208201905092915050565b600081905092915050565b6000612dce82612f42565b9150612dd983612f42565b9250827fffffffffffffffffffffffffffffffffffffffffffffffffffffffffffffffff03821115612e0e57612e0d61306b565b5b828201905092915050565b6000612e2482612f42565b9150612e2f83612f42565b925082612e3f57612e3e61309a565b5b828204905092915050565b6000612e5582612f42565b9150612e6083612f42565b9250817fffffffffffffffffffffffffffffffffffffffffffffffffffffffffffffffff0483118215151615612e9957612e9861306b565b5b828202905092915050565b6000612eaf82612f42565b9150612eba83612f42565b925082821015612ecd57612ecc61306b565b5b828203905092915050565b6000612ee382612f22565b9050919050565b60008115159050919050565b60007fffffffff0000000000000000000000000000000000000000000000000000000082169050919050565b600073ffffffffffffffffffffffffffffffffffffffff82169050919050565b6000819050919050565b82818337600083830152505050565b60005b83811015612f79578082015181840152602081019050612f5e565b83811115612f88576000848401525b50505050565b60006002820490506001821680612fa657607f821691505b60208210811415612fba57612fb96130c9565b5b50919050565b612fc982613127565b810181811067ffffffffffffffff82111715612fe857612fe76130f8565b5b80604052505050565b6000612ffc82612f42565b91507fffffffffffffffffffffffffffffffffffffffffffffffffffffffffffffffff82141561302f5761302e61306b565b5b600182019050919050565b600061304582612f42565b915061305083612f42565b9250826130605761305f61309a565b5b828206905092915050565b7f4e487b7100000000000000000000000000000000000000000000000000000000600052601160045260246000fd5b7f4e487b7100000000000000000000000000000000000000000000000000000000600052601260045260246000fd5b7f4e487b7100000000000000000000000000000000000000000000000000000000600052602260045260246000fd5b7f4e487b7100000000000000000000000000000000000000000000000000000000600052604160045260246000fd5b6000601f19601f8301169050919050565b7f222c20226465736372697074696f6e223a20224120636f6c6c656374696f6e2060008201527f6f6620485020626172732e222c2022696d616765223a2022646174613a696d6160208201527f67652f7376672b786d6c3b6261736536342c0000000000000000000000000000604082015250565b7f4552433732313a207472616e7366657220746f206e6f6e20455243373231526560008201527f63656976657220696d706c656d656e7465720000000000000000000000000000602082015250565b7f4552433732313a207472616e736665722066726f6d20696e636f72726563742060008201527f6f776e6572000000000000000000000000000000000000000000000000000000602082015250565b7f4552433732313a20746f6b656e20616c7265616479206d696e74656400000000600082015250565b7f4552433732313a207472616e7366657220746f20746865207a65726f2061646460008201527f7265737300000000000000000000000000000000000000000000000000000000602082015250565b7f4552433732313a20617070726f766520746f2063616c6c657200000000000000600082015250565b7f4552433732313a206f70657261746f7220717565727920666f72206e6f6e657860008201527f697374656e7420746f6b656e0000000000000000000000000000000000000000602082015250565b7f4552433732313a20617070726f76652063616c6c6572206973206e6f74206f7760008201527f6e6572206e6f7220617070726f76656420666f7220616c6c0000000000000000602082015250565b7f4552433732313a2062616c616e636520717565727920666f7220746865207a6560008201527f726f206164647265737300000000000000000000000000000000000000000000602082015250565b7f4552433732313a206f776e657220717565727920666f72206e6f6e657869737460008201527f656e7420746f6b656e0000000000000000000000000000000000000000000000602082015250565b7f45524337323155524953746f726167653a2055524920736574206f66206e6f6e60008201527f6578697374656e7420746f6b656e000000000000000000000000000000000000602082015250565b7f227d000000000000000000000000000000000000000000000000000000000000600082015250565b7f4552433732313a206d696e7420746f20746865207a65726f2061646472657373600082015250565b7f45524337323155524953746f726167653a2055524920717565727920666f722060008201527f6e6f6e6578697374656e7420746f6b656e000000000000000000000000000000602082015250565b7f4552433732313a20617070726f76656420717565727920666f72206e6f6e657860008201527f697374656e7420746f6b656e0000000000000000000000000000000000000000602082015250565b7f4552433732314d657461646174613a2055524920717565727920666f72206e6f60008201527f6e6578697374656e7420746f6b656e0000000000000000000000000000000000602082015250565b7f7b226e616d65223a202200000000000000000000000000000000000000000000600082015250565b7f4552433732313a20617070726f76616c20746f2063757272656e74206f776e6560008201527f7200000000000000000000000000000000000000000000000000000000000000602082015250565b7f646174613a6170706c69636174696f6e2f6a736f6e3b6261736536342c000000600082015250565b7f4552433732313a207472616e736665722063616c6c6572206973206e6f74206f60008201527f776e6572206e6f7220617070726f766564000000000000000000000000000000602082015250565b7f2048500000000000000000000000000000000000000000000000000000000000600082015250565b7f5749445448000000000000000000000000000000000000000000000000000000600082015250565b7f434f4c4f52000000000000000000000000000000000000000000000000000000600082015250565b61372a81612ed8565b811461373557600080fd5b50565b61374181612eea565b811461374c57600080fd5b50565b61375881612ef6565b811461376357600080fd5b50565b61376f81612f42565b811461377a57600080fd5b5056fe416e204e465420772f20494420257320686173206265656e206d696e74656420746f2025734142434445464748494a4b4c4d4e4f505152535455565758595a6162636465666768696a6b6c6d6e6f707172737475767778797a303132333435363738392b2fa26469706673582212208407a707deaee9fb99c566e733c42fd19ab073cb6833cde83f9a225749996e5664736f6c634300080100333c73766720786d6c6e733d27687474703a2f2f7777772e77332e6f72672f323030302f737667272076696577426f783d2730202d302e352033382039272073686170652d72656e646572696e673d2763726973704564676573273e3c70617468207374726f6b653d27233232323033342720643d274d32203268314d3320326833324d3320203368314d32203368314d3335203368314d33203468314d32203468314d3335203468314d3320203568314d32203568314d3335203568314d3320366833324d33272f3e3c70617468207374726f6b653d27233332336333392720643d274d332033683332272f3e3c70617468207374726f6b653d27233439346434632720643d274d3320346833324d332035683332272f3e3c73766720783d27332720793d27322e35272077696474683d27333227206865696768743d2733273e3c726563742066696c6c3d27",
  "linkReferences": {},
  "deployedLinkReferences": {}
}