{
  "_format": "hh-sol-artifact-1",
  "contractName": "MyEpicNFT",
  "sourceName": "contracts/MyEpicNFT.sol",
  "abi": [
    {
      "inputs": [],
      "stateMutability": "nonpayable",
      "type": "constructor"
    },
    {
      "anonymous": false,
      "inputs": [
        {
          "indexed": true,
          "internalType": "address",
          "name": "owner",
          "type": "address"
        },
        {
          "indexed": true,
          "internalType": "address",
          "name": "approved",
          "type": "address"
        },
        {
          "indexed": true,
          "internalType": "uint256",
          "name": "tokenId",
          "type": "uint256"
        }
      ],
      "name": "Approval",
      "type": "event"
    },
    {
      "anonymous": false,
      "inputs": [
        {
          "indexed": true,
          "internalType": "address",
          "name": "owner",
          "type": "address"
        },
        {
          "indexed": true,
          "internalType": "address",
          "name": "operator",
          "type": "address"
        },
        {
          "indexed": false,
          "internalType": "bool",
          "name": "approved",
          "type": "bool"
        }
      ],
      "name": "ApprovalForAll",
      "type": "event"
    },
    {
      "anonymous": false,
      "inputs": [
        {
          "indexed": false,
          "internalType": "address",
          "name": "sender",
          "type": "address"
        },
        {
          "indexed": false,
          "internalType": "uint256",
          "name": "tokenId",
          "type": "uint256"
        }
      ],
      "name": "NewEpicNFTMinted",
      "type": "event"
    },
    {
      "anonymous": false,
      "inputs": [
        {
          "indexed": true,
          "internalType": "address",
          "name": "from",
          "type": "address"
        },
        {
          "indexed": true,
          "internalType": "address",
          "name": "to",
          "type": "address"
        },
        {
          "indexed": true,
          "internalType": "uint256",
          "name": "tokenId",
          "type": "uint256"
        }
      ],
      "name": "Transfer",
      "type": "event"
    },
    {
      "inputs": [
        {
          "internalType": "address",
          "name": "to",
          "type": "address"
        },
        {
          "internalType": "uint256",
          "name": "tokenId",
          "type": "uint256"
        }
      ],
      "name": "approve",
      "outputs": [],
      "stateMutability": "nonpayable",
      "type": "function"
    },
    {
      "inputs": [
        {
          "internalType": "address",
          "name": "owner",
          "type": "address"
        }
      ],
      "name": "balanceOf",
      "outputs": [
        {
          "internalType": "uint256",
          "name": "",
          "type": "uint256"
        }
      ],
      "stateMutability": "view",
      "type": "function"
    },
    {
      "inputs": [
        {
          "internalType": "uint256",
          "name": "tokenId",
          "type": "uint256"
        }
      ],
      "name": "getApproved",
      "outputs": [
        {
          "internalType": "address",
          "name": "",
          "type": "address"
        }
      ],
      "stateMutability": "view",
      "type": "function"
    },
    {
      "inputs": [
        {
          "internalType": "address",
          "name": "owner",
          "type": "address"
        },
        {
          "internalType": "address",
          "name": "operator",
          "type": "address"
        }
      ],
      "name": "isApprovedForAll",
      "outputs": [
        {
          "internalType": "bool",
          "name": "",
          "type": "bool"
        }
      ],
      "stateMutability": "view",
      "type": "function"
    },
    {
      "inputs": [],
      "name": "makeAnEpicNFT",
      "outputs": [],
      "stateMutability": "nonpayable",
      "type": "function"
    },
    {
      "inputs": [],
      "name": "name",
      "outputs": [
        {
          "internalType": "string",
          "name": "",
          "type": "string"
        }
      ],
      "stateMutability": "view",
      "type": "function"
    },
    {
      "inputs": [],
      "name": "nftsLeft",
      "outputs": [
        {
          "internalType": "uint256",
          "name": "",
          "type": "uint256"
        }
      ],
      "stateMutability": "view",
      "type": "function"
    },
    {
      "inputs": [
        {
          "internalType": "uint256",
          "name": "tokenId",
          "type": "uint256"
        }
      ],
      "name": "ownerOf",
      "outputs": [
        {
          "internalType": "address",
          "name": "",
          "type": "address"
        }
      ],
      "stateMutability": "view",
      "type": "function"
    },
    {
      "inputs": [
        {
          "internalType": "uint256",
          "name": "tokenId",
          "type": "uint256"
        }
      ],
      "name": "pickRandomColor",
      "outputs": [
        {
          "internalType": "string",
          "name": "",
          "type": "string"
        }
      ],
      "stateMutability": "view",
      "type": "function"
    },
    {
      "inputs": [
        {
          "internalType": "uint256",
          "name": "tokenId",
          "type": "uint256"
        }
      ],
      "name": "pickRandomFirstWord",
      "outputs": [
        {
          "internalType": "string",
          "name": "",
          "type": "string"
        }
      ],
      "stateMutability": "view",
      "type": "function"
    },
    {
      "inputs": [
        {
          "internalType": "uint256",
          "name": "tokenId",
          "type": "uint256"
        }
      ],
      "name": "pickRandomSecondWord",
      "outputs": [
        {
          "internalType": "string",
          "name": "",
          "type": "string"
        }
      ],
      "stateMutability": "view",
      "type": "function"
    },
    {
      "inputs": [
        {
          "internalType": "uint256",
          "name": "tokenId",
          "type": "uint256"
        }
      ],
      "name": "pickRandomThirdWord",
      "outputs": [
        {
          "internalType": "string",
          "name": "",
          "type": "string"
        }
      ],
      "stateMutability": "view",
      "type": "function"
    },
    {
      "inputs": [
        {
          "internalType": "address",
          "name": "from",
          "type": "address"
        },
        {
          "internalType": "address",
          "name": "to",
          "type": "address"
        },
        {
          "internalType": "uint256",
          "name": "tokenId",
          "type": "uint256"
        }
      ],
      "name": "safeTransferFrom",
      "outputs": [],
      "stateMutability": "nonpayable",
      "type": "function"
    },
    {
      "inputs": [
        {
          "internalType": "address",
          "name": "from",
          "type": "address"
        },
        {
          "internalType": "address",
          "name": "to",
          "type": "address"
        },
        {
          "internalType": "uint256",
          "name": "tokenId",
          "type": "uint256"
        },
        {
          "internalType": "bytes",
          "name": "_data",
          "type": "bytes"
        }
      ],
      "name": "safeTransferFrom",
      "outputs": [],
      "stateMutability": "nonpayable",
      "type": "function"
    },
    {
      "inputs": [
        {
          "internalType": "address",
          "name": "operator",
          "type": "address"
        },
        {
          "internalType": "bool",
          "name": "approved",
          "type": "bool"
        }
      ],
      "name": "setApprovalForAll",
      "outputs": [],
      "stateMutability": "nonpayable",
      "type": "function"
    },
    {
      "inputs": [
        {
          "internalType": "bytes4",
          "name": "interfaceId",
          "type": "bytes4"
        }
      ],
      "name": "supportsInterface",
      "outputs": [
        {
          "internalType": "bool",
          "name": "",
          "type": "bool"
        }
      ],
      "stateMutability": "view",
      "type": "function"
    },
    {
      "inputs": [],
      "name": "symbol",
      "outputs": [
        {
          "internalType": "string",
          "name": "",
          "type": "string"
        }
      ],
      "stateMutability": "view",
      "type": "function"
    },
    {
      "inputs": [
        {
          "internalType": "uint256",
          "name": "tokenId",
          "type": "uint256"
        }
      ],
      "name": "tokenURI",
      "outputs": [
        {
          "internalType": "string",
          "name": "",
          "type": "string"
        }
      ],
      "stateMutability": "view",
      "type": "function"
    },
    {
      "inputs": [
        {
          "internalType": "address",
          "name": "from",
          "type": "address"
        },
        {
          "internalType": "address",
          "name": "to",
          "type": "address"
        },
        {
          "internalType": "uint256",
          "name": "tokenId",
          "type": "uint256"
        }
      ],
      "name": "transferFrom",
      "outputs": [],
      "stateMutability": "nonpayable",
      "type": "function"
    }
  ],
  "bytecode": "0x60806040526005600860006101000a81548160ff021916908360ff16021790555060405180610100016040528060d3815260200162004dfb60d39139600990805190602001906200005292919062000e84565b5060405180608001604052806056815260200162004ece60569139600a90805190602001906200008492919062000e84565b50604051806101e001604052806040518060400160405280600581526020017f536569796100000000000000000000000000000000000000000000000000000081525081526020016040518060400160405280600581526020017f48796f676100000000000000000000000000000000000000000000000000000081525081526020016040518060400160405280600581526020017f53616f726900000000000000000000000000000000000000000000000000000081525081526020016040518060400160405280600481526020017f5368756e0000000000000000000000000000000000000000000000000000000081525081526020016040518060400160405280600381526020017f496b69000000000000000000000000000000000000000000000000000000000081525081526020016040518060400160405280600681526020017f536869726975000000000000000000000000000000000000000000000000000081525081526020016040518060400160405280600681526020017f41696f726961000000000000000000000000000000000000000000000000000081525081526020016040518060400160405280600881526020017f4166726f6469746100000000000000000000000000000000000000000000000081525081526020016040518060400160405280600581526020017f43616d757300000000000000000000000000000000000000000000000000000081525081526020016040518060400160405280600381526020017f4a6f6e000000000000000000000000000000000000000000000000000000000081525081526020016040518060400160405280600581526020017f444d61736b00000000000000000000000000000000000000000000000000000081525081526020016040518060400160405280600281526020017f4d7500000000000000000000000000000000000000000000000000000000000081525081526020016040518060400160405280600981526020017f416c6465626172616e000000000000000000000000000000000000000000000081525081526020016040518060400160405280600581526020017f5368696e6100000000000000000000000000000000000000000000000000000081525081526020016040518060400160405280600581526020017f4d6172696e000000000000000000000000000000000000000000000000000000815250815250600b90600f6200041692919062000f15565b50604051806101e001604052806040518060400160405280600581526020017f50697a7a6100000000000000000000000000000000000000000000000000000081525081526020016040518060400160405280600581526020017f52616d656e00000000000000000000000000000000000000000000000000000081525081526020016040518060400160405280600481526020017f4d6561740000000000000000000000000000000000000000000000000000000081525081526020016040518060400160405280600781526020017f436869636b656e0000000000000000000000000000000000000000000000000081525081526020016040518060400160405280600581526020017f4170706c6500000000000000000000000000000000000000000000000000000081525081526020016040518060400160405280600681526020017f42616e616e61000000000000000000000000000000000000000000000000000081525081526020016040518060400160405280600981526020017f43686f636f6c617465000000000000000000000000000000000000000000000081525081526020016040518060400160405280600581526020017f506173746100000000000000000000000000000000000000000000000000000081525081526020016040518060400160405280600781526020017f4e6f6f646c65730000000000000000000000000000000000000000000000000081525081526020016040518060400160405280600581526020017f477261706500000000000000000000000000000000000000000000000000000081525081526020016040518060400160405280600381526020017f456767000000000000000000000000000000000000000000000000000000000081525081526020016040518060400160405280600681526020017f436865657365000000000000000000000000000000000000000000000000000081525081526020016040518060400160405280600581526020017f427265616400000000000000000000000000000000000000000000000000000081525081526020016040518060400160405280600481526020017f4d696c6b0000000000000000000000000000000000000000000000000000000081525081526020016040518060400160405280600681526020017f436f666665650000000000000000000000000000000000000000000000000000815250815250600c90600f620007a892919062000f15565b50604051806101e001604052806040518060400160405280600381526020017f526564000000000000000000000000000000000000000000000000000000000081525081526020016040518060400160405280600581526020017f477265656e00000000000000000000000000000000000000000000000000000081525081526020016040518060400160405280600481526020017f426c75650000000000000000000000000000000000000000000000000000000081525081526020016040518060400160405280600581526020017f576869746500000000000000000000000000000000000000000000000000000081525081526020016040518060400160405280600581526020017f426c61636b00000000000000000000000000000000000000000000000000000081525081526020016040518060400160405280600681526020017f59656c6c6f77000000000000000000000000000000000000000000000000000081525081526020016040518060400160405280600481526020017f477261790000000000000000000000000000000000000000000000000000000081525081526020016040518060400160405280600481526020017f50696e6b0000000000000000000000000000000000000000000000000000000081525081526020016040518060400160405280600581526020017f42726f776e00000000000000000000000000000000000000000000000000000081525081526020016040518060400160405280600381526020017f536b79000000000000000000000000000000000000000000000000000000000081525081526020016040518060400160405280600681526020017f507572706c65000000000000000000000000000000000000000000000000000081525081526020016040518060400160405280600681526020017f4f72616e6765000000000000000000000000000000000000000000000000000081525081526020016040518060400160405280600481526020017f4379616e0000000000000000000000000000000000000000000000000000000081525081526020016040518060400160405280600481526020017f526f73650000000000000000000000000000000000000000000000000000000081525081526020016040518060400160405280600681526020017f496e6469676f0000000000000000000000000000000000000000000000000000815250815250600d90600f62000b3a92919062000f15565b506040518060c001604052806040518060400160405280600381526020017f726564000000000000000000000000000000000000000000000000000000000081525081526020016040518060400160405280600781526020017f233038433241380000000000000000000000000000000000000000000000000081525081526020016040518060400160405280600581526020017f626c61636b00000000000000000000000000000000000000000000000000000081525081526020016040518060400160405280600681526020017f79656c6c6f77000000000000000000000000000000000000000000000000000081525081526020016040518060400160405280600481526020017f626c75650000000000000000000000000000000000000000000000000000000081525081526020016040518060400160405280600581526020017f677265656e000000000000000000000000000000000000000000000000000000815250815250600e90600662000cb892919062000f7c565b5034801562000cc657600080fd5b506040518060400160405280600981526020017f5371756172654e465400000000000000000000000000000000000000000000008152506040518060400160405280600681526020017f5351554152450000000000000000000000000000000000000000000000000000815250816000908051906020019062000d4b92919062000e84565b50806001908051906020019062000d6492919062000e84565b50505062000db26040518060400160405280601e81526020017f54686973206973206d79204e465420636f6e74726163742e20576f616821000081525062000db860201b620012a81760201c565b6200119d565b62000e588160405160240162000dcf9190620010b1565b6040516020818303038152906040527f41304fac000000000000000000000000000000000000000000000000000000007bffffffffffffffffffffffffffffffffffffffffffffffffffffffff19166020820180517bffffffffffffffffffffffffffffffffffffffffffffffffffffffff838183161783525050505062000e5b60201b60201c565b50565b60008151905060006a636f6e736f6c652e6c6f679050602083016000808483855afa5050505050565b82805462000e929062001127565b90600052602060002090601f01602090048101928262000eb6576000855562000f02565b82601f1062000ed157805160ff191683800117855562000f02565b8280016001018555821562000f02579182015b8281111562000f0157825182559160200191906001019062000ee4565b5b50905062000f11919062000fe3565b5090565b82805482825590600052602060002090810192821562000f69579160200282015b8281111562000f6857825182908051906020019062000f5792919062000e84565b509160200191906001019062000f36565b5b50905062000f78919062001002565b5090565b82805482825590600052602060002090810192821562000fd0579160200282015b8281111562000fcf57825182908051906020019062000fbe92919062000e84565b509160200191906001019062000f9d565b5b50905062000fdf919062001002565b5090565b5b8082111562000ffe57600081600090555060010162000fe4565b5090565b5b808211156200102657600081816200101c91906200102a565b5060010162001003565b5090565b508054620010389062001127565b6000825580601f106200104c57506200106d565b601f0160209004906000526020600020908101906200106c919062000fe3565b5b50565b60006200107d82620010d5565b620010898185620010e0565b93506200109b818560208601620010f1565b620010a6816200118c565b840191505092915050565b60006020820190508181036000830152620010cd818462001070565b905092915050565b600081519050919050565b600082825260208201905092915050565b60005b8381101562001111578082015181840152602081019050620010f4565b8381111562001121576000848401525b50505050565b600060028204905060018216806200114057607f821691505b602082108114156200115757620011566200115d565b5b50919050565b7f4e487b7100000000000000000000000000000000000000000000000000000000600052602260045260246000fd5b6000601f19601f8301169050919050565b613c4e80620011ad6000396000f3fe608060405234801561001057600080fd5b50600436106101215760003560e01c806370a08231116100ad578063c575757a11610071578063c575757a1461033e578063c87b56dd1461036e578063cd18dac51461039e578063de9d132f146103bc578063e985e9c5146103c657610121565b806370a082311461028857806395d89b41146102b8578063a22cb465146102d6578063b187301f146102f2578063b88d4fde1461032257610121565b806323b872dd116100f457806323b872dd146101c05780632de38d68146101dc57806342842e0e1461020c578063514dc8c6146102285780636352211e1461025857610121565b806301ffc9a71461012657806306fdde0314610156578063081812fc14610174578063095ea7b3146101a4575b600080fd5b610140600480360381019061013b91906126d4565b6103f6565b60405161014d9190612e3d565b60405180910390f35b61015e6104d8565b60405161016b9190612e58565b60405180910390f35b61018e60048036038101906101899190612726565b61056a565b60405161019b9190612dad565b60405180910390f35b6101be60048036038101906101b99190612698565b6105ef565b005b6101da60048036038101906101d59190612592565b610707565b005b6101f660048036038101906101f19190612726565b610767565b6040516102039190612e58565b60405180910390f35b61022660048036038101906102219190612592565b610885565b005b610242600480360381019061023d9190612726565b6108a5565b60405161024f9190612e58565b60405180910390f35b610272600480360381019061026d9190612726565b6109c3565b60405161027f9190612dad565b60405180910390f35b6102a2600480360381019061029d919061252d565b610a75565b6040516102af91906130b8565b60405180910390f35b6102c0610b2d565b6040516102cd9190612e58565b60405180910390f35b6102f060048036038101906102eb919061265c565b610bbf565b005b61030c60048036038101906103079190612726565b610bd5565b6040516103199190612e58565b60405180910390f35b61033c600480360381019061033791906125e1565b610cf3565b005b61035860048036038101906103539190612726565b610d55565b6040516103659190612e58565b60405180910390f35b61038860048036038101906103839190612726565b610e73565b6040516103959190612e58565b60405180910390f35b6103a6610fc5565b6040516103b391906130b8565b60405180910390f35b6103c4610ff3565b005b6103e060048036038101906103db9190612556565b611214565b6040516103ed9190612e3d565b60405180910390f35b60007f80ac58cd000000000000000000000000000000000000000000000000000000007bffffffffffffffffffffffffffffffffffffffffffffffffffffffff1916827bffffffffffffffffffffffffffffffffffffffffffffffffffffffff191614806104c157507f5b5e139f000000000000000000000000000000000000000000000000000000007bffffffffffffffffffffffffffffffffffffffffffffffffffffffff1916827bffffffffffffffffffffffffffffffffffffffffffffffffffffffff1916145b806104d157506104d082611341565b5b9050919050565b6060600080546104e79061334c565b80601f01602080910402602001604051908101604052809291908181526020018280546105139061334c565b80156105605780601f1061053557610100808354040283529160200191610560565b820191906000526020600020905b81548152906001019060200180831161054357829003601f168201915b5050505050905090565b6000610575826113ab565b6105b4576040517f08c379a00000000000000000000000000000000000000000000000000000000081526004016105ab90613038565b60405180910390fd5b6004600083815260200190815260200160002060009054906101000a900473ffffffffffffffffffffffffffffffffffffffff169050919050565b60006105fa826109c3565b90508073ffffffffffffffffffffffffffffffffffffffff168373ffffffffffffffffffffffffffffffffffffffff16141561066b576040517f08c379a000000000000000000000000000000000000000000000000000000000815260040161066290613078565b60405180910390fd5b8073ffffffffffffffffffffffffffffffffffffffff1661068a611417565b73ffffffffffffffffffffffffffffffffffffffff1614806106b957506106b8816106b3611417565b611214565b5b6106f8576040517f08c379a00000000000000000000000000000000000000000000000000000000081526004016106ef90612f78565b60405180910390fd5b610702838361141f565b505050565b610718610712611417565b826114d8565b610757576040517f08c379a000000000000000000000000000000000000000000000000000000000815260040161074e90613098565b60405180910390fd5b6107628383836115b6565b505050565b6060600061079b6107778461181d565b6040516020016107879190612d47565b6040516020818303038152906040526119ca565b9050600b80549050816107ae91906133f8565b9050600b81815481106107ea577f4e487b7100000000000000000000000000000000000000000000000000000000600052603260045260246000fd5b9060005260206000200180546107ff9061334c565b80601f016020809104026020016040519081016040528092919081815260200182805461082b9061334c565b80156108785780601f1061084d57610100808354040283529160200191610878565b820191906000526020600020905b81548152906001019060200180831161085b57829003601f168201915b5050505050915050919050565b6108a083838360405180602001604052806000815250610cf3565b505050565b606060006108d96108b58461181d565b6040516020016108c59190612d8b565b6040516020818303038152906040526119ca565b9050600e80549050816108ec91906133f8565b9050600e8181548110610928577f4e487b7100000000000000000000000000000000000000000000000000000000600052603260045260246000fd5b90600052602060002001805461093d9061334c565b80601f01602080910402602001604051908101604052809291908181526020018280546109699061334c565b80156109b65780601f1061098b576101008083540402835291602001916109b6565b820191906000526020600020905b81548152906001019060200180831161099957829003601f168201915b5050505050915050919050565b6000806002600084815260200190815260200160002060009054906101000a900473ffffffffffffffffffffffffffffffffffffffff169050600073ffffffffffffffffffffffffffffffffffffffff168173ffffffffffffffffffffffffffffffffffffffff161415610a6c576040517f08c379a0000000000000000000000000000000000000000000000000000000008152600401610a6390612fb8565b60405180910390fd5b80915050919050565b60008073ffffffffffffffffffffffffffffffffffffffff168273ffffffffffffffffffffffffffffffffffffffff161415610ae6576040517f08c379a0000000000000000000000000000000000000000000000000000000008152600401610add90612f98565b60405180910390fd5b600360008373ffffffffffffffffffffffffffffffffffffffff1673ffffffffffffffffffffffffffffffffffffffff168152602001908152602001600020549050919050565b606060018054610b3c9061334c565b80601f0160208091040260200160405190810160405280929190818152602001828054610b689061334c565b8015610bb55780601f10610b8a57610100808354040283529160200191610bb5565b820191906000526020600020905b815481529060010190602001808311610b9857829003601f168201915b5050505050905090565b610bd1610bca611417565b83836119fd565b5050565b60606000610c09610be58461181d565b604051602001610bf59190612ce0565b6040516020818303038152906040526119ca565b9050600c8054905081610c1c91906133f8565b9050600c8181548110610c58577f4e487b7100000000000000000000000000000000000000000000000000000000600052603260045260246000fd5b906000526020600020018054610c6d9061334c565b80601f0160208091040260200160405190810160405280929190818152602001828054610c999061334c565b8015610ce65780601f10610cbb57610100808354040283529160200191610ce6565b820191906000526020600020905b815481529060010190602001808311610cc957829003601f168201915b5050505050915050919050565b610d04610cfe611417565b836114d8565b610d43576040517f08c379a0000000000000000000000000000000000000000000000000000000008152600401610d3a90613098565b60405180910390fd5b610d4f84848484611b6a565b50505050565b60606000610d89610d658461181d565b604051602001610d759190612cbe565b6040516020818303038152906040526119ca565b9050600d8054905081610d9c91906133f8565b9050600d8181548110610dd8577f4e487b7100000000000000000000000000000000000000000000000000000000600052603260045260246000fd5b906000526020600020018054610ded9061334c565b80601f0160208091040260200160405190810160405280929190818152602001828054610e199061334c565b8015610e665780601f10610e3b57610100808354040283529160200191610e66565b820191906000526020600020905b815481529060010190602001808311610e4957829003601f168201915b5050505050915050919050565b6060610e7e826113ab565b610ebd576040517f08c379a0000000000000000000000000000000000000000000000000000000008152600401610eb490613018565b60405180910390fd5b6000600660008481526020019081526020016000208054610edd9061334c565b80601f0160208091040260200160405190810160405280929190818152602001828054610f099061334c565b8015610f565780601f10610f2b57610100808354040283529160200191610f56565b820191906000526020600020905b815481529060010190602001808311610f3957829003601f168201915b505050505090506000610f67611bc6565b9050600081511415610f7d578192505050610fc0565b600082511115610fb2578082604051602001610f9a929190612c20565b60405160208183030381529060405292505050610fc0565b610fbb84611bdd565b925050505b919050565b6000610fd16007611c84565b600860009054906101000a900460ff1660ff16610fee9190613262565b905090565b600860009054906101000a900460ff1660ff166110106007611c84565b1061101a57600080fd5b60006110266007611c84565b9050600061103382610767565b9050600061104083610bd5565b9050600061104d84610d55565b9050600083838360405160200161106693929190612c44565b60405160208183030381529060405290506000611082866108a5565b90506000600982600a8560405160200161109f9493929190612c75565b604051602081830303815290604052905060006110e4846110bf84611c92565b6040516020016110d0929190612d02565b604051602081830303815290604052611c92565b90506000816040516020016110f99190612d69565b60405160208183030381529060405290506111486040518060400160405280601581526020017f0a2d2d2d2d2d2d2d2d2d2d2d2d2d2d2d2d2d2d2d2d00000000000000000000008152506112a8565b611151816112a8565b61118f6040518060400160405280601581526020017f2d2d2d2d2d2d2d2d2d2d2d2d2d2d2d2d2d2d2d2d0a00000000000000000000008152506112a8565b611199338a611e50565b6111a38982611e6e565b6111ad6007611ee2565b6111d0604051806060016040528060258152602001613bb4602591398a33611ef8565b7febb98688741ffa4c7589bf325de30cf7becb63de567842e1ccdb6cb949fdc82c338a604051611201929190612e14565b60405180910390a1505050505050505050565b6000600560008473ffffffffffffffffffffffffffffffffffffffff1673ffffffffffffffffffffffffffffffffffffffff16815260200190815260200160002060008373ffffffffffffffffffffffffffffffffffffffff1673ffffffffffffffffffffffffffffffffffffffff16815260200190815260200160002060009054906101000a900460ff16905092915050565b61133e816040516024016112bc9190612e58565b6040516020818303038152906040527f41304fac000000000000000000000000000000000000000000000000000000007bffffffffffffffffffffffffffffffffffffffffffffffffffffffff19166020820180517bffffffffffffffffffffffffffffffffffffffffffffffffffffffff8381831617835250505050611f97565b50565b60007f01ffc9a7000000000000000000000000000000000000000000000000000000007bffffffffffffffffffffffffffffffffffffffffffffffffffffffff1916827bffffffffffffffffffffffffffffffffffffffffffffffffffffffff1916149050919050565b60008073ffffffffffffffffffffffffffffffffffffffff166002600084815260200190815260200160002060009054906101000a900473ffffffffffffffffffffffffffffffffffffffff1673ffffffffffffffffffffffffffffffffffffffff1614159050919050565b600033905090565b816004600083815260200190815260200160002060006101000a81548173ffffffffffffffffffffffffffffffffffffffff021916908373ffffffffffffffffffffffffffffffffffffffff160217905550808273ffffffffffffffffffffffffffffffffffffffff16611492836109c3565b73ffffffffffffffffffffffffffffffffffffffff167f8c5be1e5ebec7d5bd14f71427d1e84f3dd0314c0f7b2291e5b200ac8c7c3b92560405160405180910390a45050565b60006114e3826113ab565b611522576040517f08c379a000000000000000000000000000000000000000000000000000000000815260040161151990612f58565b60405180910390fd5b600061152d836109c3565b90508073ffffffffffffffffffffffffffffffffffffffff168473ffffffffffffffffffffffffffffffffffffffff16148061159c57508373ffffffffffffffffffffffffffffffffffffffff166115848461056a565b73ffffffffffffffffffffffffffffffffffffffff16145b806115ad57506115ac8185611214565b5b91505092915050565b8273ffffffffffffffffffffffffffffffffffffffff166115d6826109c3565b73ffffffffffffffffffffffffffffffffffffffff161461162c576040517f08c379a000000000000000000000000000000000000000000000000000000000815260040161162390612ed8565b60405180910390fd5b600073ffffffffffffffffffffffffffffffffffffffff168273ffffffffffffffffffffffffffffffffffffffff16141561169c576040517f08c379a000000000000000000000000000000000000000000000000000000000815260040161169390612f18565b60405180910390fd5b6116a7838383611fc0565b6116b260008261141f565b6001600360008573ffffffffffffffffffffffffffffffffffffffff1673ffffffffffffffffffffffffffffffffffffffff16815260200190815260200160002060008282546117029190613262565b925050819055506001600360008473ffffffffffffffffffffffffffffffffffffffff1673ffffffffffffffffffffffffffffffffffffffff16815260200190815260200160002060008282546117599190613181565b92505081905550816002600083815260200190815260200160002060006101000a81548173ffffffffffffffffffffffffffffffffffffffff021916908373ffffffffffffffffffffffffffffffffffffffff160217905550808273ffffffffffffffffffffffffffffffffffffffff168473ffffffffffffffffffffffffffffffffffffffff167fddf252ad1be2c89b69c2b068fc378daa952ba7f163c4a11628f55a4df523b3ef60405160405180910390a4611818838383611fc5565b505050565b60606000821415611865576040518060400160405280600181526020017f300000000000000000000000000000000000000000000000000000000000000081525090506119c5565b600082905060005b60008214611897578080611880906133af565b915050600a8261189091906131d7565b915061186d565b60008167ffffffffffffffff8111156118d9577f4e487b7100000000000000000000000000000000000000000000000000000000600052604160045260246000fd5b6040519080825280601f01601f19166020018201604052801561190b5781602001600182028036833780820191505090505b5090505b600085146119be576001826119249190613262565b9150600a8561193391906133f8565b603061193f9190613181565b60f81b81838151811061197b577f4e487b7100000000000000000000000000000000000000000000000000000000600052603260045260246000fd5b60200101907effffffffffffffffffffffffffffffffffffffffffffffffffffffffffffff1916908160001a905350600a856119b791906131d7565b945061190f565b8093505050505b919050565b6000816040516020016119dd9190612c09565b6040516020818303038152906040528051906020012060001c9050919050565b8173ffffffffffffffffffffffffffffffffffffffff168373ffffffffffffffffffffffffffffffffffffffff161415611a6c576040517f08c379a0000000000000000000000000000000000000000000000000000000008152600401611a6390612f38565b60405180910390fd5b80600560008573ffffffffffffffffffffffffffffffffffffffff1673ffffffffffffffffffffffffffffffffffffffff16815260200190815260200160002060008473ffffffffffffffffffffffffffffffffffffffff1673ffffffffffffffffffffffffffffffffffffffff16815260200190815260200160002060006101000a81548160ff0219169083151502179055508173ffffffffffffffffffffffffffffffffffffffff168373ffffffffffffffffffffffffffffffffffffffff167f17307eab39ab6107e8899845ad3d59bd9653f200f220920489ca2b5937696c3183604051611b5d9190612e3d565b60405180910390a3505050565b611b758484846115b6565b611b8184848484611fca565b611bc0576040517f08c379a0000000000000000000000000000000000000000000000000000000008152600401611bb790612eb8565b60405180910390fd5b50505050565b606060405180602001604052806000815250905090565b6060611be8826113ab565b611c27576040517f08c379a0000000000000000000000000000000000000000000000000000000008152600401611c1e90613058565b60405180910390fd5b6000611c31611bc6565b90506000815111611c515760405180602001604052806000815250611c7c565b80611c5b8461181d565b604051602001611c6c929190612c20565b6040516020818303038152906040525b915050919050565b600081600001549050919050565b60606000825190506000811415611cbb5760405180602001604052806000815250915050611e4b565b60006003600283611ccc9190613181565b611cd691906131d7565b6004611ce29190613208565b90506000602082611cf39190613181565b67ffffffffffffffff811115611d32577f4e487b7100000000000000000000000000000000000000000000000000000000600052604160045260246000fd5b6040519080825280601f01601f191660200182016040528015611d645781602001600182028036833780820191505090505b5090506000604051806060016040528060408152602001613bd9604091399050600181016020830160005b86811015611e085760038101905062ffffff818a015116603f8160121c168401518060081b905060ff603f83600c1c1686015116810190508060081b905060ff603f8360061c1686015116810190508060081b905060ff603f831686015116810190508060e01b90508084526004840193505050611d8f565b506003860660018114611e225760028114611e3257611e3d565b613d3d60f01b6002830352611e3d565b603d60f81b60018303525b508484525050819450505050505b919050565b611e6a828260405180602001604052806000815250612161565b5050565b611e77826113ab565b611eb6576040517f08c379a0000000000000000000000000000000000000000000000000000000008152600401611ead90612fd8565b60405180910390fd5b80600660008481526020019081526020016000209080519060200190611edd9291906123b9565b505050565b6001816000016000828254019250508190555050565b611f92838383604051602401611f1093929190612e7a565b6040516020818303038152906040527fe3849f79000000000000000000000000000000000000000000000000000000007bffffffffffffffffffffffffffffffffffffffffffffffffffffffff19166020820180517bffffffffffffffffffffffffffffffffffffffffffffffffffffffff8381831617835250505050611f97565b505050565b60008151905060006a636f6e736f6c652e6c6f679050602083016000808483855afa5050505050565b505050565b505050565b6000611feb8473ffffffffffffffffffffffffffffffffffffffff166121bc565b15612154578373ffffffffffffffffffffffffffffffffffffffff1663150b7a02612014611417565b8786866040518563ffffffff1660e01b81526004016120369493929190612dc8565b602060405180830381600087803b15801561205057600080fd5b505af192505050801561208157506040513d601f19601f8201168201806040525081019061207e91906126fd565b60015b612104573d80600081146120b1576040519150601f19603f3d011682016040523d82523d6000602084013e6120b6565b606091505b506000815114156120fc576040517f08c379a00000000000000000000000000000000000000000000000000000000081526004016120f390612eb8565b60405180910390fd5b805181602001fd5b63150b7a0260e01b7bffffffffffffffffffffffffffffffffffffffffffffffffffffffff1916817bffffffffffffffffffffffffffffffffffffffffffffffffffffffff191614915050612159565b600190505b949350505050565b61216b83836121df565b6121786000848484611fca565b6121b7576040517f08c379a00000000000000000000000000000000000000000000000000000000081526004016121ae90612eb8565b60405180910390fd5b505050565b6000808273ffffffffffffffffffffffffffffffffffffffff163b119050919050565b600073ffffffffffffffffffffffffffffffffffffffff168273ffffffffffffffffffffffffffffffffffffffff16141561224f576040517f08c379a000000000000000000000000000000000000000000000000000000000815260040161224690612ff8565b60405180910390fd5b612258816113ab565b15612298576040517f08c379a000000000000000000000000000000000000000000000000000000000815260040161228f90612ef8565b60405180910390fd5b6122a460008383611fc0565b6001600360008473ffffffffffffffffffffffffffffffffffffffff1673ffffffffffffffffffffffffffffffffffffffff16815260200190815260200160002060008282546122f49190613181565b92505081905550816002600083815260200190815260200160002060006101000a81548173ffffffffffffffffffffffffffffffffffffffff021916908373ffffffffffffffffffffffffffffffffffffffff160217905550808273ffffffffffffffffffffffffffffffffffffffff16600073ffffffffffffffffffffffffffffffffffffffff167fddf252ad1be2c89b69c2b068fc378daa952ba7f163c4a11628f55a4df523b3ef60405160405180910390a46123b560008383611fc5565b5050565b8280546123c59061334c565b90600052602060002090601f0160209004810192826123e7576000855561242e565b82601f1061240057805160ff191683800117855561242e565b8280016001018555821561242e579182015b8281111561242d578251825591602001919060010190612412565b5b50905061243b919061243f565b5090565b5b80821115612458576000816000905550600101612440565b5090565b600061246f61246a846130f8565b6130d3565b90508281526020810184848401111561248757600080fd5b61249284828561330a565b509392505050565b6000813590506124a981613b57565b92915050565b6000813590506124be81613b6e565b92915050565b6000813590506124d381613b85565b92915050565b6000815190506124e881613b85565b92915050565b600082601f8301126124ff57600080fd5b813561250f84826020860161245c565b91505092915050565b60008135905061252781613b9c565b92915050565b60006020828403121561253f57600080fd5b600061254d8482850161249a565b91505092915050565b6000806040838503121561256957600080fd5b60006125778582860161249a565b92505060206125888582860161249a565b9150509250929050565b6000806000606084860312156125a757600080fd5b60006125b58682870161249a565b93505060206125c68682870161249a565b92505060406125d786828701612518565b9150509250925092565b600080600080608085870312156125f757600080fd5b60006126058782880161249a565b94505060206126168782880161249a565b935050604061262787828801612518565b925050606085013567ffffffffffffffff81111561264457600080fd5b612650878288016124ee565b91505092959194509250565b6000806040838503121561266f57600080fd5b600061267d8582860161249a565b925050602061268e858286016124af565b9150509250929050565b600080604083850312156126ab57600080fd5b60006126b98582860161249a565b92505060206126ca85828601612518565b9150509250929050565b6000602082840312156126e657600080fd5b60006126f4848285016124c4565b91505092915050565b60006020828403121561270f57600080fd5b600061271d848285016124d9565b91505092915050565b60006020828403121561273857600080fd5b600061274684828501612518565b91505092915050565b61275881613296565b82525050565b612767816132a8565b82525050565b60006127788261313e565b6127828185613154565b9350612792818560208601613319565b61279b816134e5565b840191505092915050565b60006127b182613149565b6127bb8185613165565b93506127cb818560208601613319565b6127d4816134e5565b840191505092915050565b60006127ea82613149565b6127f48185613176565b9350612804818560208601613319565b80840191505092915050565b6000815461281d8161334c565b6128278186613176565b94506001821660008114612842576001811461285357612886565b60ff19831686528186019350612886565b61285c85613129565b60005b8381101561287e5781548189015260018201915060208101905061285f565b838801955050505b50505092915050565b600061289c603283613165565b91506128a7826134f6565b604082019050919050565b60006128bf602583613165565b91506128ca82613545565b604082019050919050565b60006128e2601c83613165565b91506128ed82613594565b602082019050919050565b6000612905600a83613176565b9150612910826135bd565b600a82019050919050565b6000612928602483613165565b9150612933826135e6565b604082019050919050565b600061294b601983613165565b915061295682613635565b602082019050919050565b600061296e606383613176565b91506129798261365e565b606382019050919050565b6000612991600b83613176565b915061299c826136f9565b600b82019050919050565b60006129b4602c83613165565b91506129bf82613722565b604082019050919050565b60006129d7600d83613176565b91506129e282613771565b600d82019050919050565b60006129fa603883613165565b9150612a058261379a565b604082019050919050565b6000612a1d602a83613165565b9150612a28826137e9565b604082019050919050565b6000612a40602983613165565b9150612a4b82613838565b604082019050919050565b6000612a63602e83613165565b9150612a6e82613887565b604082019050919050565b6000612a86600283613176565b9150612a91826138d6565b600282019050919050565b6000612aa9602083613165565b9150612ab4826138ff565b602082019050919050565b6000612acc603183613165565b9150612ad782613928565b604082019050919050565b6000612aef602c83613165565b9150612afa82613977565b604082019050919050565b6000612b12602f83613165565b9150612b1d826139c6565b604082019050919050565b6000612b35600a83613176565b9150612b4082613a15565b600a82019050919050565b6000612b58602183613165565b9150612b6382613a3e565b604082019050919050565b6000612b7b600a83613176565b9150612b8682613a8d565b600a82019050919050565b6000612b9e601d83613176565b9150612ba982613ab6565b601d82019050919050565b6000612bc1603183613165565b9150612bcc82613adf565b604082019050919050565b6000612be4600583613176565b9150612bef82613b2e565b600582019050919050565b612c0381613300565b82525050565b6000612c1582846127df565b915081905092915050565b6000612c2c82856127df565b9150612c3882846127df565b91508190509392505050565b6000612c5082866127df565b9150612c5c82856127df565b9150612c6882846127df565b9150819050949350505050565b6000612c818287612810565b9150612c8d82866127df565b9150612c998285612810565b9150612ca582846127df565b9150612cb0826129ca565b915081905095945050505050565b6000612cc9826128f8565b9150612cd582846127df565b915081905092915050565b6000612ceb82612984565b9150612cf782846127df565b915081905092915050565b6000612d0d82612b28565b9150612d1982856127df565b9150612d2482612961565b9150612d3082846127df565b9150612d3b82612a79565b91508190509392505050565b6000612d5282612b6e565b9150612d5e82846127df565b915081905092915050565b6000612d7482612b91565b9150612d8082846127df565b915081905092915050565b6000612d9682612bd7565b9150612da282846127df565b915081905092915050565b6000602082019050612dc2600083018461274f565b92915050565b6000608082019050612ddd600083018761274f565b612dea602083018661274f565b612df76040830185612bfa565b8181036060830152612e09818461276d565b905095945050505050565b6000604082019050612e29600083018561274f565b612e366020830184612bfa565b9392505050565b6000602082019050612e52600083018461275e565b92915050565b60006020820190508181036000830152612e7281846127a6565b905092915050565b60006060820190508181036000830152612e9481866127a6565b9050612ea36020830185612bfa565b612eb0604083018461274f565b949350505050565b60006020820190508181036000830152612ed18161288f565b9050919050565b60006020820190508181036000830152612ef1816128b2565b9050919050565b60006020820190508181036000830152612f11816128d5565b9050919050565b60006020820190508181036000830152612f318161291b565b9050919050565b60006020820190508181036000830152612f518161293e565b9050919050565b60006020820190508181036000830152612f71816129a7565b9050919050565b60006020820190508181036000830152612f91816129ed565b9050919050565b60006020820190508181036000830152612fb181612a10565b9050919050565b60006020820190508181036000830152612fd181612a33565b9050919050565b60006020820190508181036000830152612ff181612a56565b9050919050565b6000602082019050818103600083015261301181612a9c565b9050919050565b6000602082019050818103600083015261303181612abf565b9050919050565b6000602082019050818103600083015261305181612ae2565b9050919050565b6000602082019050818103600083015261307181612b05565b9050919050565b6000602082019050818103600083015261309181612b4b565b9050919050565b600060208201905081810360008301526130b181612bb4565b9050919050565b60006020820190506130cd6000830184612bfa565b92915050565b60006130dd6130ee565b90506130e9828261337e565b919050565b6000604051905090565b600067ffffffffffffffff821115613113576131126134b6565b5b61311c826134e5565b9050602081019050919050565b60008190508160005260206000209050919050565b600081519050919050565b600081519050919050565b600082825260208201905092915050565b600082825260208201905092915050565b600081905092915050565b600061318c82613300565b915061319783613300565b9250827fffffffffffffffffffffffffffffffffffffffffffffffffffffffffffffffff038211156131cc576131cb613429565b5b828201905092915050565b60006131e282613300565b91506131ed83613300565b9250826131fd576131fc613458565b5b828204905092915050565b600061321382613300565b915061321e83613300565b9250817fffffffffffffffffffffffffffffffffffffffffffffffffffffffffffffffff048311821515161561325757613256613429565b5b828202905092915050565b600061326d82613300565b915061327883613300565b92508282101561328b5761328a613429565b5b828203905092915050565b60006132a1826132e0565b9050919050565b60008115159050919050565b60007fffffffff0000000000000000000000000000000000000000000000000000000082169050919050565b600073ffffffffffffffffffffffffffffffffffffffff82169050919050565b6000819050919050565b82818337600083830152505050565b60005b8381101561333757808201518184015260208101905061331c565b83811115613346576000848401525b50505050565b6000600282049050600182168061336457607f821691505b6020821081141561337857613377613487565b5b50919050565b613387826134e5565b810181811067ffffffffffffffff821117156133a6576133a56134b6565b5b80604052505050565b60006133ba82613300565b91507fffffffffffffffffffffffffffffffffffffffffffffffffffffffffffffffff8214156133ed576133ec613429565b5b600182019050919050565b600061340382613300565b915061340e83613300565b92508261341e5761341d613458565b5b828206905092915050565b7f4e487b7100000000000000000000000000000000000000000000000000000000600052601160045260246000fd5b7f4e487b7100000000000000000000000000000000000000000000000000000000600052601260045260246000fd5b7f4e487b7100000000000000000000000000000000000000000000000000000000600052602260045260246000fd5b7f4e487b7100000000000000000000000000000000000000000000000000000000600052604160045260246000fd5b6000601f19601f8301169050919050565b7f4552433732313a207472616e7366657220746f206e6f6e20455243373231526560008201527f63656976657220696d706c656d656e7465720000000000000000000000000000602082015250565b7f4552433732313a207472616e736665722066726f6d20696e636f72726563742060008201527f6f776e6572000000000000000000000000000000000000000000000000000000602082015250565b7f4552433732313a20746f6b656e20616c7265616479206d696e74656400000000600082015250565b7f54484952445f574f524400000000000000000000000000000000000000000000600082015250565b7f4552433732313a207472616e7366657220746f20746865207a65726f2061646460008201527f7265737300000000000000000000000000000000000000000000000000000000602082015250565b7f4552433732313a20617070726f766520746f2063616c6c657200000000000000600082015250565b7f222c20226465736372697074696f6e223a20224120686967686c79206163636c60008201527f61696d656420636f6c6c656374696f6e206f6620737175617265732e222c202260208201527f696d616765223a2022646174613a696d6167652f7376672b786d6c3b6261736560408201527f36342c0000000000000000000000000000000000000000000000000000000000606082015250565b7f5345434f4e445f574f5244000000000000000000000000000000000000000000600082015250565b7f4552433732313a206f70657261746f7220717565727920666f72206e6f6e657860008201527f697374656e7420746f6b656e0000000000000000000000000000000000000000602082015250565b7f3c2f746578743e3c2f7376673e00000000000000000000000000000000000000600082015250565b7f4552433732313a20617070726f76652063616c6c6572206973206e6f74206f7760008201527f6e6572206e6f7220617070726f76656420666f7220616c6c0000000000000000602082015250565b7f4552433732313a2062616c616e636520717565727920666f7220746865207a6560008201527f726f206164647265737300000000000000000000000000000000000000000000602082015250565b7f4552433732313a206f776e657220717565727920666f72206e6f6e657869737460008201527f656e7420746f6b656e0000000000000000000000000000000000000000000000602082015250565b7f45524337323155524953746f726167653a2055524920736574206f66206e6f6e60008201527f6578697374656e7420746f6b656e000000000000000000000000000000000000602082015250565b7f227d000000000000000000000000000000000000000000000000000000000000600082015250565b7f4552433732313a206d696e7420746f20746865207a65726f2061646472657373600082015250565b7f45524337323155524953746f726167653a2055524920717565727920666f722060008201527f6e6f6e6578697374656e7420746f6b656e000000000000000000000000000000602082015250565b7f4552433732313a20617070726f76656420717565727920666f72206e6f6e657860008201527f697374656e7420746f6b656e0000000000000000000000000000000000000000602082015250565b7f4552433732314d657461646174613a2055524920717565727920666f72206e6f60008201527f6e6578697374656e7420746f6b656e0000000000000000000000000000000000602082015250565b7f7b226e616d65223a202200000000000000000000000000000000000000000000600082015250565b7f4552433732313a20617070726f76616c20746f2063757272656e74206f776e6560008201527f7200000000000000000000000000000000000000000000000000000000000000602082015250565b7f46495253545f574f524400000000000000000000000000000000000000000000600082015250565b7f646174613a6170706c69636174696f6e2f6a736f6e3b6261736536342c000000600082015250565b7f4552433732313a207472616e736665722063616c6c6572206973206e6f74206f60008201527f776e6572206e6f7220617070726f766564000000000000000000000000000000602082015250565b7f434f4c4f52000000000000000000000000000000000000000000000000000000600082015250565b613b6081613296565b8114613b6b57600080fd5b50565b613b77816132a8565b8114613b8257600080fd5b50565b613b8e816132b4565b8114613b9957600080fd5b50565b613ba581613300565b8114613bb057600080fd5b5056fe416e204e465420772f20494420257320686173206265656e206d696e74656420746f2025734142434445464748494a4b4c4d4e4f505152535455565758595a6162636465666768696a6b6c6d6e6f707172737475767778797a303132333435363738392b2fa2646970667358221220ed7790c9bc104db09a33644a65ce1d2a21031356e8d3ef3bae0bf62a6d86693e64736f6c634300080100333c73766720786d6c6e733d27687474703a2f2f7777772e77332e6f72672f323030302f73766727207072657365727665417370656374526174696f3d27784d696e594d696e206d656574272076696577426f783d273020302033353020333530273e3c7374796c653e2e62617365207b2066696c6c3a2077686974653b20666f6e742d66616d696c793a2073657269663b20666f6e742d73697a653a20323470783b207d3c2f7374796c653e3c726563742077696474683d273130302527206865696768743d2731303025272066696c6c3d27272f3e3c7465787420783d273530252720793d273530252720636c6173733d27626173652720646f6d696e616e742d626173656c696e653d276d6964646c652720746578742d616e63686f723d276d6964646c65273e",
  "linkReferences": {},
  "deployedLinkReferences": {}
}